:020000040800F2
:1000000000500020991B0008ED190008F5190008A0
:10001000FD190008051A00080D1A0008000000006C
:10002000000000000000000000000000151A000899
:10003000211A0008000000002D1A0008391A0008D3
:10004000E11B0008E11B0008E11B0008E11B0008A0
:10005000E11B0008E11B0008E11B0008E11B000890
:10006000E11B0008E11B0008E11B0008E11B000880
:10007000E11B0008E11B0008E11B0008E11B000870
:10008000E11B0008E11B0008E11B0008E11B000860
:10009000E11B0008E11B0008E11B0008E11B000850
:1000A000E11B0008E11B0008E11B0008E11B000840
:1000B000451A0008E11B0008E11B0008E11B0008CD
:1000C000E11B0008E11B0008E11B0008E11B000820
:1000D000E11B0008E11B0008E11B0008E11B000810
:1000E000E11B0008E11B0008E11B00080000000004
:1000F0000000000000000000000000000000000000
:0C01000000000000000000005FF808F1A3
:10010C000348044B834202D0034B03B1184770479A
:10011C000C0000200C000020000000000548064BDD
:10012C001B1AD90F01EBA301491002D0034B03B1E9
:10013C00184770470C0000200C0000200000000045
:10014C0010B5064C237843B9FFF7DAFF044B13B113
:10015C000448AFF300800123237010BD0C00002075
:10016C00000000003C1C000808B5054B1BB10549FC
:10017C000548AFF30080BDE80840FFF7CFBF00BFD4
:10018C0000000000100000203C1C000880B400AFF0
:10019C0000BFBD4680BC704780B584B000AF7860AE
:1001AC007B68002B01D1012336E07B681B684CF681
:1001BC00CC421A607B681B6845F255521A607B680A
:1001CC001B687A6852685A607B681B687A68926808
:1001DC009A6000F08DF8F86011E000F089F80246A2
:1001EC00FB68D31A41F23C32934208D97B681B68F6
:1001FC00DB6803F00303002B01D003230CE07B68C6
:10020C001B68DB6803F00303002BE6D17B681B68DB
:10021C004AF6AA221A60002318461037BD4680BD44
:10022C0080B483B000AF78607B681B684AF6AA2262
:10023C001A60002318460C37BD4680BC704700007E
:10024C0080B500AF084B1B68074A43F010031360DE
:10025C00032000F08DFE0F2000F008F801F08EFB5B
:10026C000023184680BD00BF0020024080B582B03C
:10027C0000AF7860124B1A68124B1B7819464FF47A
:10028C007A73B3FBF1F3B2FBF3F3184600F0A5FE5F
:10029C000346002B01D001230EE07B680F2B0AD8FC
:1002AC00002279684FF0FF3000F06DFE064A7B6843
:1002BC001360002300E0012318460837BD4680BDBB
:1002CC0000000020080000200400002080B400AFD3
:1002DC00054B1B781A46054B1B681344034A1360E5
:1002EC0000BFBD4680BC70470800002028000020DD
:1002FC0080B400AF024B1B681846BD4680BC7047EB
:10030C002800002080B586B000AF78607B68002B99
:10031C0001D1012372E27B681B6803F00103002BFF
:10032C0000F08780924B5B6803F00C03042B0CD01D
:10033C008F4B5B6803F00C03082B12D18C4B5B6862
:10034C0003F48033B3F5803F0BD1894B1B6803F466
:10035C000033002B6CD07B685B68002B68D10123C9
:10036C004CE27B685B68B3F5803F06D1804B1B6821
:10037C007F4A43F4803313602EE07B685B68002B6C
:10038C000CD17B4B1B687A4A23F480331360784B77
:10039C001B68774A23F4802313601DE07B685B683D
:1003AC00B3F5A02F0CD1724B1B68714A43F4802318
:1003BC0013606F4B1B686E4A43F4803313600BE081
:1003CC006B4B1B686A4A23F480331360684B1B68C1
:1003DC00674A23F4802313607B685B68002B13D07F
:1003EC00FFF786FF386108E0FFF782FF02463B69A2
:1003FC00D31A642B01D9032300E25D4B1B6803F471
:10040C000033002BF0D014E0FFF772FF386108E0E6
:10041C00FFF76EFF02463B69D31A642B01D9032305
:10042C00ECE1534B1B6803F40033002BF0D100E0DC
:10043C0000BF7B681B6803F00203002B63D04C4B9E
:10044C005B6803F00C03002B0BD0494B5B6803F08B
:10045C000C03082B1CD1464B5B6803F48033002B38
:10046C0016D1434B1B6803F00203002B05D07B68AD
:10047C001B69012B01D00123C0E13D4B1B6823F00C
:10048C00F8027B685B69DB00394913430B603AE087
:10049C007B681B69002B20D0364B01221A60FFF7BA
:1004AC0027FF386108E0FFF723FF02463B69D31AA8
:1004BC00022B01D90323A1E12D4B1B6803F002038E
:1004CC00002BF0D02A4B1B6823F0F8027B685B6989
:1004DC00DB00274913430B6015E0264B00221A6002
:1004EC00FFF706FF386108E0FFF702FF02463B69A1
:1004FC00D31A022B01D9032380E11D4B1B6803F097
:10050C000203002BF0D17B681B6803F00803002B5F
:10051C003AD07B689B69002B19D0174B01221A60CB
:10052C00FFF7E6FE386108E0FFF7E2FE02463B69A2
:10053C00D31A022B01D9032360E10D4B5B6A03F044
:10054C000203002BF0D0012000F09CFA1CE00A4BB7
:10055C0000221A60FFF7CCFE38610FE0FFF7C8FEEF
:10056C0002463B69D31A022B08D9032346E100BF8C
:10057C00001002400000424280044242924B5B6AEF
:10058C0003F00203002BE9D17B681B6803F0040322
:10059C00002B00F0A6800023FB758B4BDB6903F06E
:1005AC008053002B0DD1884BDB69874A43F0805375
:1005BC00D361854BDB6903F08053BB60BB680123BF
:1005CC00FB75824B1B6803F48073002B18D17F4B97
:1005DC001B687E4A43F480731360FFF789FE386111
:1005EC0008E0FFF785FE02463B69D31A642B01D95C
:1005FC00032303E1754B1B6803F48073002BF0D0CD
:10060C007B68DB68012B06D16F4B1B6A6E4A43F08B
:10061C00010313622DE07B68DB68002B0CD16A4B65
:10062C001B6A694A23F001031362674B1B6A664A13
:10063C0023F0040313621CE07B68DB68052B0CD1F0
:10064C00614B1B6A604A43F0040313625E4B1B6AE6
:10065C005D4A43F0010313620BE05B4B1B6A5A4A81
:10066C0023F001031362584B1B6A574A23F004030F
:10067C0013627B68DB68002B15D0FFF739FE3861FD
:10068C000AE0FFF735FE02463B69D31A41F2883285
:10069C00934201D90323B1E04B4B1B6A03F00203D5
:1006AC00002BEED014E0FFF723FE38610AE0FFF7D1
:1006BC001FFE02463B69D31A41F28832934201D99C
:1006CC0003239BE0404B1B6A03F00203002BEED18B
:1006DC00FB7D012B05D13C4BDB693B4A23F080535E
:1006EC00D3617B68DB69002B00F08780364B5B683D
:1006FC0003F00C03082B61D07B68DB69022B46D11D
:10070C00334B00221A60FFF7F3FD386108E0FFF766
:10071C00EFFD02463B69D31A022B01D903236DE08E
:10072C00294B1B6803F00073002BF0D17B681B6A0C
:10073C00B3F5803F08D1244B5B6823F400327B680F
:10074C009B68214913434B601F4B5B6823F4741265
:10075C007B68196A7B685B6A0B431B4913434B60CC
:10076C001B4B01221A60FFF7C3FD386108E0FFF74D
:10077C00BFFD02463B69D31A022B01D903233DE08E
:10078C00114B1B6803F00073002BF0D035E0104BBD
:10079C0000221A60FFF7ACFD386108E0FFF7A8FDF6
:1007AC0002463B69D31A022B01D9032326E0064BE0
:1007BC001B6803F00073002BF0D11EE07B68DB6933
:1007CC00012B07D1012319E00010024000700040FA
:1007DC00600042420B4B5B68FB60FB6803F48032A9
:1007EC007B681B6A9A4206D1FB6803F470127B6823
:1007FC005B6A9A4201D0012300E0002318461837A7
:10080C00BD4680BD0010024080B584B000AF78605A
:10081C0039607B68002B01D10123D0E06A4B1B6847
:10082C0003F007033A689A4210D9674B1B6823F010
:10083C00070265493B6813430B60634B1B6803F06D
:10084C0007033A689A4201D00123B8E07B681B6821
:10085C0003F00203002B20D07B681B6803F0040319
:10086C00002B05D0594B5B68584A43F4E063536046
:10087C007B681B6803F00803002B05D0534B5B68A7
:10088C00524A43F460535360504B5B6823F0F002C0
:10089C007B689B684D4913434B607B681B6803F076
:1008AC000103002B40D07B685B68012B07D1474BC1
:1008BC001B6803F40033002B15D101237FE07B6808
:1008CC005B68022B07D1414B1B6803F00073002BB4
:1008DC0009D1012373E03D4B1B6803F00203002B8D
:1008EC0001D101236BE0394B5B6823F003027B6879
:1008FC005B68364913434B60FFF7FAFCF8600AE07B
:10090C00FFF7F6FC0246FB68D31A41F28832934299
:10091C0001D9032353E02D4B5B6803F00C027B6879
:10092C005B689B009A42EBD1274B1B6803F00703D3
:10093C003A689A4210D2244B1B6823F007022249D2
:10094C003B6813430B60204B1B6803F007033A68AA
:10095C009A4201D0012332E07B681B6803F0040348
:10096C00002B08D0194B5B6823F4E0627B68DB68D2
:10097C00164913434B607B681B6803F00803002B7C
:10098C0009D0124B5B6823F460527B681B69DB0057
:10099C000E4913434B6000F021F802460B4B5B6889
:1009AC001B0903F00F030A49CB5C22FA03F3094A33
:1009BC001360094B1B681846FFF758FC00231846B8
:1009CC001037BD4680BD00BF002002400010024021
:1009DC00541C0008000000200400002080B487B0E4
:1009EC0000AF0023FB600023BB6000237B6100236E
:1009FC007B6000233B611E4B5B68FB60FB6803F074
:100A0C000C03042B02D0082B03D027E0194B3B61BD
:100A1C0027E0FB689B0C03F00F03174AD35C7B6049
:100A2C00FB6803F48033002B10D0114B5B685B0C1C
:100A3C0003F00103114AD35CBB607B680D4A03FBD6
:100A4C0002F2BB68B2FBF3F37B6104E07B680C4AF7
:100A5C0002FB03F37B617B693B6102E0054B3B616D
:100A6C0000BF3B6918461C37BD4680BC704700BFB1
:100A7C000010024000127A00641C0008741C00086C
:100A8C0000093D0080B485B000AF78600A4B1B684C
:100A9C000A4AA2FB03235B0A7A6802FB03F3FB609E
:100AAC0000BFFB685A1EFA60002BF9D100BF00BFD3
:100ABC001437BD4680BC704700000020D34D621037
:100ACC0080B48BB000AF7860396000237B62002368
:100ADC003B6253E101227B6A02FA03F37B613B68C0
:100AEC001B687A6913403B613A697B699A4240F012
:100AFC0042813B685B688F4A934247D08D4A934250
:100B0C005ED88D4A934241D08B4A934258D88B4A37
:100B1C0093423BD0894A934252D8894A934235D06A
:100B2C00874A93424CD8874A93422FD0854A9342A6
:100B3C0046D8854A934229D0834A934240D8122BF7
:100B4C001FD0122B3CD8112B11D0112B38D8032BC2
:100B5C0033D0032B34D8022B0ED0022B30D8002BE1
:100B6C0014D0012B2CD13B68DB683B6229E03B683D
:100B7C00DB6804333B6224E03B68DB6808333B6290
:100B8C001FE03B68DB680C333B621AE03B689B68F8
:100B9C00002B02D104233B6213E03B689B68012BC2
:100BAC0005D108233B627B687A691A6109E0082346
:100BBC003B627B687A695A6103E000233B6200E088
:100BCC0000BF3B69FF2B02D87B68FB6102E07B68AE
:100BDC000433FB613B69FF2B03D87B6A9B00BB6131
:100BEC0003E07B6A083B9B00BB61FB691A680F2121
:100BFC00BB6901FA03F3DB431A40396ABB6901FA9A
:100C0C0003F31A43FB691A603B685B6803F080537B
:100C1C00002B00F0B0804D4B9B694C4A43F0010314
:100C2C0093614A4B9B6903F00103BB60BB68484A64
:100C3C007B6A9B08023352F82330FB607B6A03F01B
:100C4C0003039B000F2202FA03F3DB43FA68134001
:100C5C00FB607B683F4A934213D07B683E4A9342C9
:100C6C000DD07B683D4A934207D07B683C4A934247
:100C7C0001D1032306E0042304E0022302E0012354
:100C8C0000E000237A6A02F0030292009340FA68B3
:100C9C001343FB602E497B6A9B080233FA6841F8C8
:100CAC0023203B685B6803F48013002B06D02D4B8C
:100CBC009A682C493B6913438B6006E0294B9A6870
:100CCC003B69DB43274913408B603B685B6803F44B
:100CDC000013002B06D0234BDA6822493B691343DF
:100CEC00CB6006E01F4BDA683B69DB431D491340C0
:100CFC00CB603B685B6803F40033002B06D0194BC8
:100D0C005A6818493B6913434B6006E0154B5A6807
:100D1C003B69DB43134913404B603B685B6803F44E
:100D2C008033002B20D00F4B1A680E493B691343BC
:100D3C000B6020E000003210000031100000221087
:100D4C0000002110000012100000111000100240D1
:100D5C000000014000080140000C0140001001405F
:100D6C0000140140000401400B4B1A683B69DB4343
:100D7C00094913400B607B6A01337B623B681A683C
:100D8C007B6A22FA03F3002B7FF4A4AE00BF00BFF2
:100D9C002C37BD4680BC70470004014080B483B042
:100DAC0000AF78600B467B8013467B707B78002B02
:100DBC0003D07A887B681A6103E07B881A047B680D
:100DCC001A6100BF0C37BD4680BC704780B485B03B
:100DDC0000AF78607B6803F00703FB600C4BDB68AB
:100DEC00BB60BA684FF6FF031340BB60FB681A0286
:100DFC00BB68134343F0BF6343F40033BB60044A46
:100E0C00BB68D36000BF1437BD4680BC704700BFC1
:100E1C0000ED00E080B400AF044BDB681B0A03F06C
:100E2C0007031846BD4680BC704700BF00ED00E0CC
:100E3C0080B483B000AF0346FB7197F90730002BE9
:100E4C000BDBFB7903F01F02064997F907305B09AE
:100E5C00012000FA02F241F8232000BF0C37BD46F6
:100E6C0080BC704700E100E080B483B000AF034663
:100E7C003960FB7197F90730002B0ADB3B68DAB25B
:100E8C000C4997F907301201D2B20B4483F80023B6
:100E9C000AE03B68DAB20849FB7903F00F03043B24
:100EAC001201D2B20B441A7600BF0C37BD4680BC7F
:100EBC00704700BF00E100E000ED00E080B489B0B5
:100ECC0000AFF860B9607A60FB6803F007037B61E0
:100EDC007B69033B042B04D87B69C3F10703FB61DB
:100EEC0001E00423FB617B690433062B03D97B6986
:100EFC00033BBB6101E00023BB614FF0FF32FB6998
:100F0C0002FA03F3DA43BB681A40BB699A404FF00C
:100F1C00FF31BB6901FA03F3D9437B680B401343E0
:100F2C0018462437BD4680BC7047000080B582B09F
:100F3C0000AF78607B68013BB3F1807F01D3012364
:100F4C000FE00A4A7B68013B53600F214FF0FF30E2
:100F5C00FFF78AFF054B00229A60044B07221A60A8
:100F6C00002318460837BD4680BD00BF10E000E0E6
:100F7C0080B582B000AF78607868FFF727FF00BFBC
:100F8C000837BD4680BD80B586B000AF0346B9605A
:100F9C007A60FB7300237B61FFF73CFF78617A6812
:100FAC00B9687869FFF78AFF024697F90F30114646
:100FBC001846FFF759FF00BF1837BD4680BD80B5F6
:100FCC0082B000AF0346FB7197F907301846FFF764
:100FDC002FFF00BF0837BD4680BD80B582B000AF83
:100FEC0078607868FFF7A2FF034618460837BD46BD
:100FFC0080BD80B582B000AF78607B68002B01D1DA
:10100C00012341E07B6893F83D30DBB2002B06D125
:10101C007B68002283F83C20786800F063FD7B68D5
:10102C00022283F83D207B681A687B6804331946DA
:10103C00104600F05BFA7B68012283F846207B683F
:10104C00012283F83E207B68012283F83F207B68D5
:10105C00012283F840207B68012283F841207B68C1
:10106C00012283F842207B68012283F843207B68AD
:10107C00012283F844207B68012283F845207B6899
:10108C00012283F83D20002318460837BD4680BD59
:10109C0080B485B000AF78607B6893F83D30DBB2EC
:1010AC00012B01D001233AE07B68022283F83D201A
:1010BC007B681B68DA687B681B6842F00102DA60A7
:1010CC007B681B68184A93420ED07B681B68B3F18F
:1010DC00804F09D07B681B68144A934204D07B680C
:1010EC001B68134A934211D17B681B689B6803F001
:1010FC000703FB60FB68062B10D07B681B681A6823
:10110C007B681B6842F001021A6007E07B681B6871
:10111C001A687B681B6842F001021A6000231846AB
:10112C001437BD4680BC7047002C014000040040C1
:10113C000008004080B584B000AF78607B681B6805
:10114C00DB68FB607B681B681B69BB60BB6803F0DA
:10115C000203002B20D0FB6803F00203002B1BD0F2
:10116C007B681B686FF002021A617B6801221A7798
:10117C007B681B689B6903F00303002B03D0786822
:10118C0000F098F905E0786800F08BF9786800F0C9
:10119C009AF97B6800221A77BB6803F00403002BD2
:1011AC0020D0FB6803F00403002B1BD07B681B686A
:1011BC006FF004021A617B6802221A777B681B6845
:1011CC009B6903F44073002B03D0786800F072F92C
:1011DC0005E0786800F065F9786800F074F97B68D0
:1011EC0000221A77BB6803F00803002B20D0FB68A1
:1011FC0003F00803002B1BD07B681B686FF0080200
:10120C001A617B6804221A777B681B68DB6903F020
:10121C000303002B03D0786800F04CF905E07868E4
:10122C0000F03FF9786800F04EF97B6800221A77DD
:10123C00BB6803F01003002B20D0FB6803F01003F5
:10124C00002B1BD07B681B686FF010021A617B6847
:10125C0008221A777B681B68DB6903F44073002B48
:10126C0003D0786800F026F905E0786800F019F9E9
:10127C00786800F028F97B6800221A77BB6803F0C5
:10128C000103002B0CD0FB6803F00103002B07D0EB
:10129C007B681B686FF001021A61786800F05CFCD7
:1012AC00BB6803F08003002B0CD0FB6803F08003B9
:1012BC00002B07D07B681B686FF080021A6178687E
:1012CC0000F07FFABB6803F04003002B0CD0FB68E6
:1012DC0003F04003002B07D07B681B686FF04002C3
:1012EC001A61786800F0F8F8BB6803F02003002B53
:1012FC000CD0FB6803F02003002B07D07B681B6825
:10130C006FF020021A61786800F052FA00BF1037B3
:10131C00BD4680BD80B584B000AF786039600023D5
:10132C00FB737B6893F83C30012B01D10223B4E0B2
:10133C007B68012283F83C207B68022283F83D20E5
:10134C007B681B689B68BB60BB6823F07703BB6042
:10135C00BB6823F47F43BB607B681B68BA689A60E8
:10136C003B681B68B3F5005F3ED0B3F5005F00F23D
:10137C008780B3F5805F00F08680B3F5805F7FD8FF
:10138C00702B1AD0702B7BD8602B50D0602B77D859
:10139C00502B3CD0502B73D8402B58D0402B6FD8AF
:1013AC00302B64D0302B6BD8202B60D0202B67D8FF
:1013BC00002B5CD0102B5AD062E07B6818683B681D
:1013CC0099683B685A683B68DB6800F074F97B6885
:1013DC001B689B68BB60BB6843F07703BB607B6892
:1013EC001B68BA689A604FE07B6818683B6899681C
:1013FC003B685A683B68DB6800F05DF97B681B68EA
:10140C009A687B681B6842F480429A603CE07B6877
:10141C0018683B6859683B68DB681A4600F0D4F8DA
:10142C007B681B685021184600F02BF92CE07B6878
:10143C0018683B6859683B68DB681A4600F0F2F89C
:10144C007B681B686021184600F01BF91CE07B6868
:10145C0018683B6859683B68DB681A4600F0B4F8BA
:10146C007B681B684021184600F00BF90CE07B6888
:10147C001A683B681B681946104600F002F903E035
:10148C000123FB7300E000BF7B68012283F83D2041
:10149C007B68002283F83C20FB7B18461037BD4646
:1014AC0080BD80B483B000AF786000BF0C37BD4600
:1014BC0080BC704780B483B000AF786000BF0C373D
:1014CC00BD4680BC704780B483B000AF786000BF6D
:1014DC000C37BD4680BC704780B483B000AF7860D9
:1014EC0000BF0C37BD4680BC7047000080B485B08F
:1014FC0000AF786039607B681B68FB607B682F4AA3
:10150C0093420BD07B68B3F1804F07D07B682C4A99
:10151C00934203D07B682B4A934208D1FB6823F09B
:10152C007003FB603B685B68FA681343FB607B6885
:10153C00224A93420BD07B68B3F1804F07D07B6873
:10154C001F4A934203D07B681E4A934208D1FB6822
:10155C0023F44073FB603B68DB68FA681343FB6061
:10156C00FB6823F080023B685B691343FB607B687C
:10157C00FA681A603B689A687B68DA623B681A689A
:10158C007B689A627B680D4A934203D13B681A6967
:10159C007B681A637B6801225A617B681B6903F0C4
:1015AC000103002B05D07B681B6923F001027B68CB
:1015BC001A6100BF1437BD4680BC7047002C014037
:1015CC00000400400008004080B487B000AFF86011
:1015DC00B9607A60FB681B6A7B61FB681B6A23F04D
:1015EC000102FB681A62FB689B693B613B6923F053
:1015FC00F0033B617B681B013A6913433B617B69D8
:10160C0023F00A037B617A69BB6813437B61FB6837
:10161C003A699A61FB687A691A6200BF1C37BD4649
:10162C0080BC704780B487B000AFF860B9607A6056
:10163C00FB681B6A7B61FB681B6A23F01002FB686A
:10164C001A62FB689B693B613B6923F470433B6105
:10165C007B681B033A6913433B617B6923F0A0034E
:10166C007B61BB681B017A6913437B61FB683A6938
:10167C009A61FB687A691A6200BF1C37BD4680BC50
:10168C00704780B485B000AF786039607B689B6828
:10169C00FB60FB6823F07003FB603A68FB68134344
:1016AC0043F00703FB607B68FA689A6000BF14374D
:1016BC00BD4680BC704780B487B000AFF860B9609D
:1016CC007A603B60FB689B687B617B6923F47F439A
:1016DC007B613B681A027B681A43BB6813437A69C7
:1016EC0013437B61FB687A699A6000BF1C37BD4667
:1016FC0080BC704780B485B000AF786039607B687F
:10170C0093F83C30012B01D1022346E07B68012287
:10171C0083F83C207B68022283F83D207B681B68A1
:10172C005B68FB607B681B689B68BB60FB6823F095
:10173C007003FB603B681B68FA681343FB607B68B3
:10174C001B68FA685A607B681B68164A93420ED075
:10175C007B681B68B3F1804F09D07B681B68124A09
:10176C00934204D07B681B68104A93420CD1BB682F
:10177C0023F08003BB603B685B68BA681343BB60B3
:10178C007B681B68BA689A607B68012283F83D20ED
:10179C007B68002283F83C20002318461437BD4692
:1017AC0080BC7047002C0140000400400008004041
:1017BC0080B483B000AF786000BF0C37BD4680BCEE
:1017CC00704780B483B000AF786000BF0C37BD4663
:1017DC0080BC704780B588B000AF07F110030022C1
:1017EC001A605A609A60DA60244B9B69234A43F072
:1017FC0010039361214B9B6903F01003FB60FB68A2
:10180C001E4B9B691D4A43F0200393611B4B9B6944
:10181C0003F02003BB60BB68184B9B69174A43F06D
:10182C0004039361154B9B6903F004037B607B6895
:10183C0000224FF400511248FFF7B0FA4FF4005356
:10184C003B6101237B610023BB610223FB6107F138
:10185C00100319460A48FFF733F901233B610023B3
:10186C007B610123BB6107F1100319460548FFF7A3
:10187C0027F900BF2037BD4680BD00BF00100240D5
:10188C00001001400008014080B500AF094B0A4A26
:10189C001A60084B04225A60064B40F2E1429A60EF
:1018AC000448FEF779FC0346002B01D000F05FF8EA
:1018BC0000BF80BD2C0000200030004080B500AF80
:1018CC00FEF7BEFC00F00CF8FFF784FFFFF7DCFF1F
:1018DC0000F0BCF800F02AF900F034F900BFFDE785
:1018EC0080B590B000AF07F11803282200211846EC
:1018FC0000F071F93B1D00221A605A609A60DA60A0
:10190C001A610923BB614FF48033FB6100233B62F6
:10191C000123BB6201233B6302237B634FF48033BF
:10192C00BB634FF4E013FB6307F118031846FEF793
:10193C00E9FC0346002B01D000F019F80F237B6063
:10194C000223BB600023FB604FF480633B610023E8
:10195C007B613B1D02211846FEF756FF0346002B08
:10196C0001D000F004F800BF4037BD4680BD80B404
:10197C0000AF72B600BF00BFFDE7000080B485B0B9
:10198C0000AF154B9B69144A43F001039361124B52
:10199C009B6903F00103BB60BB680F4BDB690E4A0C
:1019AC0043F08053D3610C4BDB6903F080537B60B5
:1019BC007B680A4B5B68FB60FB6823F0E063FB60B1
:1019CC00FB6843F00073FB60044AFB68536000BF84
:1019DC001437BD4680BC7047001002400000014027
:1019EC0080B400AF00BFFDE780B400AF00BFFDE7DF
:1019FC0080B400AF00BFFDE780B400AF00BFFDE7CF
:101A0C0080B400AF00BFFDE780B400AF00BFBD469F
:101A1C0080BC704780B400AF00BFBD4680BC70472F
:101A2C0080B400AF00BFBD4680BC704780B500AF2E
:101A3C00FEF74CFC00BF80BD80B500AF0248FFF73D
:101A4C0079FB00BF80BD00BF3800002080B586B098
:101A5C0000AF07F1080300221A605A609A60DA603E
:101A6C003B4600221A605A601D4B4FF080421A60B0
:101A7C001B4B47225A601A4B00229A60184B40F2BB
:101A8C00E732DA60164B00221A61154B80229A61FC
:101A9C001348FFF7AEFA0346002B01D0FFF767FFA0
:101AAC004FF48053BB6007F1080319460C48FFF74D
:101ABC0031FC0346002B01D0FFF759FF00233B609C
:101ACC0000237B603B4619460548FFF713FE03468F
:101ADC00002B01D0FFF74BFF00BF1837BD4680BD70
:101AEC003800002080B584B000AF78607B681B683C
:101AFC00B3F1804F13D10C4BDB690B4A43F001035C
:101B0C00D361094BDB6903F00103FB60FB68002226
:101B1C0000211C20FFF737FA1C20FFF750FA00BFFA
:101B2C001037BD4680BD00BF0010024080B500AF2D
:101B3C0000224FF400510248FFF730F900BF80BD7E
:101B4C000010014080B500AF0248FFF7A1FA00BFBA
:101B5C0080BD00BF3800002080B582B000AF786037
:101B6C007B681B68B3F1804F07D1064B1B680133B0
:101B7C00044A13600448FEF753FB00BF0837BD4608
:101B8C0080BD00BF800000202C000020FEF7FEFA74
:101B9C000B480C490C4A002302E0D458C4500433BF
:101BAC00C4188C42F9D3094A094C002301E0136094
:101BBC000432A242FBD300F017F8FFF77FFE704708
:101BCC00000000200C000020801C00080C000020ED
:101BDC0084000020FEE703460244934200D1704784
:101BEC0003F8011BF9E7000070B500260C4C0D4BF7
:101BFC001D1BB6EBA50F09D1002600F019F80A4CF5
:101C0C000A4B1D1BB6EBA50F05D170BD54F8043B58
:101C1C0098470136EDE754F8043B98470136F1E755
:101C2C00781C0008781C0008781C00087C1C000834
:101C3C00F8B500BFF8BC08BC9E467047F8B500BFAD
:081C4C00F8BC08BC9E4670477D
:101C54000000000000000000010203040607080958
:101C640002030405060708090A0B0C0D0E0F1010D9
:041C74000102000069
:041C780075010008EA
:041C7C004D0100080E
:0C1C800000127A001000000001000000BB
:0400000508001B993B
:00000001FF
